:10000000A3C0B0C0AFC0AEC0ADC013C1ABC0AAC02A
:10001000A9C0A8C0A7C0A6C0A5C0A4C0A3C0010213
:100020000000040000000000000000003800000094
:100030000000370002020202020202020202010272
:100040000408102020041008000000000000000038
:1000500000000000000000000000000000000000A0
:10006000010101010101010101010101020202027C
:10007000020202020303030303030404040405054C
:100080000505050606060607070708080809090901
:100090000A0A0A0B0B0B0C0C0D0D0D0E0E0F0F1098
:1000A000101111121213131414151516161718180F
:1000B00019191A1B1B1C1D1D1E1F1F202122222364
:1000C000242526262728292A2A2B2C2D2E2F30318D
:1000D00032333435363738393A3B3C3D3E3F404188
:1000E000424445464748494B4C4D4E505152545559
:1000F0005658595A5C5D5E606163646667696A6CF4
:100100006D6F7072737577787A7C7D7F818284865B
:1001100088898B8D8F91929496989A9C9EA0A2A488
:10012000A6A8AAACAEB0B2B4B6B8BABCBFC1C3C57B
:10013000C7CACCCED1D3D5D7DADCDFE1E3E6E8EB32
:10014000EDF0F2F5F7FAFCFF11241FBECFEDCDBFA5
:1001500020E0A0E6B0E001C01D92AF38B207E1F7A1
:10016000AED0F3C14DCF90E0FC01E25EFF4F349181
:10017000FC01E25CFF4F2491FC01EC5CFF4FE49139
:10018000EE23B9F0332329F0323001F198F4313005
:10019000C9F0F0E0EE0FFF1FE85DFF4FA591B491AD
:1001A0008FB7F894EC91611114C020952E232C93F5
:1001B0008FBF0895333011F0343059F78CB58F7DEF
:1001C0008CBDE7CF8AB58F778ABDE3CF8AB58F7DA7
:1001D000FBCF2E2BECCF3FB7F89480916500909128
:1001E0006600A0916700B091680022B708B601FED2
:1001F00005C02F3F19F00196A11DB11D3FBF662715
:10020000782F892F9A2F620F711D811D911D23E078
:1002100030E040E050E080D108958FB980E48EB99D
:100220008FB7F894769B03C08FBF8FB10895689AFB
:10023000F9CF1F920F920FB60F9211242F933F9375
:100240008F939F93AF93BF938091610090916200D1
:10025000A0916300B09164003091600026E6230F06
:100260002D3728F029EE230F0196A11DB11D2093F3
:1002700060008093610090936200A0936300B0934C
:1002800064008091650090916600A0916700B09134
:1002900068000196A11DB11D8093650090936600D2
:1002A000A0936700B0936800BF91AF919F918F9129
:1002B0003F912F910F900FBE0F901F90189578943B
:1002C0008AB582608ABD8AB581608ABD83B7826043
:1002D00083BF83B7816083BF89B7826089BF80B7DE
:1002E000826080BF80B7816080BF329A319A309A35
:1002F000379A8CB580648CBD80E886BD16BCE2E47C
:10030000F0E02491E8E3F0E084918823C1F090E0EC
:10031000880F991FFC01E25DFF4FC591D491FC014C
:10032000E85DFF4FA591B4919FB7F8943881822F73
:10033000809583238883EC91E22BEC939FBF4BDF66
:100340004B015C01F4E0CF2ED12CE12CF12C43DFEA
:10035000681979098A099B09683E734081059105EE
:10036000B0F321E0C21AD108E108F10888EE880E46
:1003700083E0981EA11CB11CC114D104E104F10456
:1003800031F789E690E090938B0080938A0083E0B8
:1003900080938700E1E4F0E02491E7E3F0E08491CA
:1003A000882399F090E0880F991FFC01E25DFF4FD0
:1003B000A591B491FC01E85DFF4F859194918FB7B1
:1003C000F894EC91E22BEC938FBF61E08091870071
:1003D000CADE8DB18F718DB98DB18A618DB9BA9A2E
:1003E000B99AB89860E080918700BDDE8FEF15DF85
:1003F0008FEF13DF8FEF11DF61E080918700B3DEB5
:10040000CAE6D0E088E2899390E0C238D907D9F7EC
:100410000AE710E052E7E52E50E0F52E60E0C62E28
:1004200060E0D62E7FE0A72EB12C80918D009091B8
:100430008E009C012150310930938E0020938D0055
:10044000892BC1F480918C008F5FB0928E00A092B6
:100450008D00EAE6F0E095E0980F292F269521938C
:100460008B57913808F4892F20E0E238F20799F78A
:1004700080938C00912C60E08091870074DE8091E5
:100480008200AAE7B0E0ED91F0E0E85BFF4FE49175
:1004900090E0959587959E1608F48068CA17DB074B
:1004A00091F780938200B9DE80918200A2E7B0E0EC
:1004B000ED91F0E0E85BFF4FE49190E09595879532
:1004C0009E1608F480680A171B0791F78093820034
:1004D000A4DE80918200AAE6B0E0ED91F0E0E85B56
:1004E000FF4FE49190E0959587959E1608F48068FB
:1004F000EA16FB0691F7809382008FDE61E080911F
:10050000870031DE939480E89812B5CFC114D104EE
:1005100009F48BCF75DD89CFEE27FF27AA27BB27EC
:1005200008C0A20FB31FE41FF51F220F331F441F83
:10053000551F969587957795679598F37040A9F71D
:0E054000009799F7BD01CF010895F894FFCF01
:00000001FF
